{"abi":[{"type":"constructor","inputs":[{"name":"_geoxToken","type":"address","internalType":"address"},{"name":"_signer","type":"address","internalType":"address"}],"stateMutability":"nonpayable"},{"type":"function","name":"CLAIM_DEADLINE","inputs":[],"outputs":[{"name":"","type":"uint256","internalType":"uint256"}],"stateMutability":"view"},{"type":"function","name":"approve","inputs":[{"name":"to","type":"address","internalType":"address"},{"name":"tokenId","type":"uint256","internalType":"uint256"}],"outputs":[],"stateMutability":"nonpayable"},{"type":"function","name":"balanceOf","inputs":[{"name":"owner","type":"address","internalType":"address"}],"outputs":[{"name":"","type":"uint256","internalType":"uint256"}],"stateMutability":"view"},{"type":"function","name":"canClaim","inputs":[{"name":"user","type":"address","internalType":"address"},{"name":"weekId","type":"uint256","internalType":"uint256"}],"outputs":[{"name":"","type":"bool","internalType":"bool"}],"stateMutability":"view"},{"type":"function","name":"claimReward","inputs":[{"name":"weekId","type":"uint256","internalType":"uint256"},{"name":"rank","type":"uint256","internalType":"uint256"},{"name":"points","type":"uint256","internalType":"uint256"},{"name":"username","type":"string","internalType":"string"},{"name":"pfpUrl","type":"string","internalType":"string"},{"name":"deadline","type":"uint256","internalType":"uint256"},{"name":"signature","type":"bytes","internalType":"bytes"}],"outputs":[],"stateMutability":"nonpayable"},{"type":"function","name":"geoxToken","inputs":[],"outputs":[{"name":"","type":"address","internalType":"contract IERC20"}],"stateMutability":"view"},{"type":"function","name":"getApproved","inputs":[{"name":"tokenId","type":"uint256","internalType":"uint256"}],"outputs":[{"name":"","type":"address","internalType":"address"}],"stateMutability":"view"},{"type":"function","name":"getCurrentWeekId","inputs":[],"outputs":[{"name":"","type":"uint256","internalType":"uint256"}],"stateMutability":"view"},{"type":"function","name":"getUserData","inputs":[{"name":"user","type":"address","internalType":"address"}],"outputs":[{"name":"","type":"tuple","internalType":"struct GEOXRewards.UserData","components":[{"name":"tokenId","type":"uint256","internalType":"uint256"},{"name":"username","type":"string","internalType":"string"},{"name":"pfpUrl","type":"string","internalType":"string"},{"name":"totalPoints","type":"uint256","internalType":"uint256"},{"name":"highestRank","type":"uint256","internalType":"uint256"},{"name":"totalClaims","type":"uint256","internalType":"uint256"},{"name":"lastClaimWeek","type":"uint256","internalType":"uint256"}]}],"stateMutability":"view"},{"type":"function","name":"hasClaimed","inputs":[{"name":"","type":"address","internalType":"address"},{"name":"","type":"uint256","internalType":"uint256"}],"outputs":[{"name":"","type":"bool","internalType":"bool"}],"stateMutability":"view"},{"type":"function","name":"isApprovedForAll","inputs":[{"name":"owner","type":"address","internalType":"address"},{"name":"operator","type":"address","internalType":"address"}],"outputs":[{"name":"","type":"bool","internalType":"bool"}],"stateMutability":"view"},{"type":"function","name":"name","inputs":[],"outputs":[{"name":"","type":"string","internalType":"string"}],"stateMutability":"view"},{"type":"function","name":"owner","inputs":[],"outputs":[{"name":"","type":"address","internalType":"address"}],"stateMutability":"view"},{"type":"function","name":"ownerOf","inputs":[{"name":"tokenId","type":"uint256","internalType":"uint256"}],"outputs":[{"name":"","type":"address","internalType":"address"}],"stateMutability":"view"},{"type":"function","name":"renounceOwnership","inputs":[],"outputs":[],"stateMutability":"nonpayable"},{"type":"function","name":"safeTransferFrom","inputs":[{"name":"from","type":"address","internalType":"address"},{"name":"to","type":"address","internalType":"address"},{"name":"tokenId","type":"uint256","internalType":"uint256"}],"outputs":[],"stateMutability":"nonpayable"},{"type":"function","name":"safeTransferFrom","inputs":[{"name":"from","type":"address","internalType":"address"},{"name":"to","type":"address","internalType":"address"},{"name":"tokenId","type":"uint256","internalType":"uint256"},{"name":"data","type":"bytes","internalType":"bytes"}],"outputs":[],"stateMutability":"nonpayable"},{"type":"function","name":"setApprovalForAll","inputs":[{"name":"operator","type":"address","internalType":"address"},{"name":"approved","type":"bool","internalType":"bool"}],"outputs":[],"stateMutability":"nonpayable"},{"type":"function","name":"setSigner","inputs":[{"name":"_newSigner","type":"address","internalType":"address"}],"outputs":[],"stateMutability":"nonpayable"},{"type":"function","name":"signer","inputs":[],"outputs":[{"name":"","type":"address","internalType":"address"}],"stateMutability":"view"},{"type":"function","name":"supportsInterface","inputs":[{"name":"interfaceId","type":"bytes4","internalType":"bytes4"}],"outputs":[{"name":"","type":"bool","internalType":"bool"}],"stateMutability":"view"},{"type":"function","name":"symbol","inputs":[],"outputs":[{"name":"","type":"string","internalType":"string"}],"stateMutability":"view"},{"type":"function","name":"tokenOwnerData","inputs":[{"name":"","type":"uint256","internalType":"uint256"}],"outputs":[{"name":"","type":"address","internalType":"address"}],"stateMutability":"view"},{"type":"function","name":"tokenURI","inputs":[{"name":"tokenId","type":"uint256","internalType":"uint256"}],"outputs":[{"name":"","type":"string","internalType":"string"}],"stateMutability":"view"},{"type":"function","name":"transferFrom","inputs":[{"name":"from","type":"address","internalType":"address"},{"name":"to","type":"address","internalType":"address"},{"name":"tokenId","type":"uint256","internalType":"uint256"}],"outputs":[],"stateMutability":"nonpayable"},{"type":"function","name":"transferOwnership","inputs":[{"name":"newOwner","type":"address","internalType":"address"}],"outputs":[],"stateMutability":"nonpayable"},{"type":"function","name":"usedSignatures","inputs":[{"name":"","type":"bytes32","internalType":"bytes32"}],"outputs":[{"name":"","type":"bool","internalType":"bool"}],"stateMutability":"view"},{"type":"function","name":"userData","inputs":[{"name":"","type":"address","internalType":"address"}],"outputs":[{"name":"tokenId","type":"uint256","internalType":"uint256"},{"name":"username","type":"string","internalType":"string"},{"name":"pfpUrl","type":"string","internalType":"string"},{"name":"totalPoints","type":"uint256","internalType":"uint256"},{"name":"highestRank","type":"uint256","internalType":"uint256"},{"name":"totalClaims","type":"uint256","internalType":"uint256"},{"name":"lastClaimWeek","type":"uint256","internalType":"uint256"}],"stateMutability":"view"},{"type":"function","name":"weeklyRewards","inputs":[{"name":"","type":"uint256","internalType":"uint256"}],"outputs":[{"name":"","type":"uint256","internalType":"uint256"}],"stateMutability":"view"},{"type":"function","name":"withdrawTokens","inputs":[{"name":"token","type":"address","internalType":"address"},{"name":"amount","type":"uint256","internalType":"uint256"}],"outputs":[],"stateMutability":"nonpayable"},{"type":"event","name":"Approval","inputs":[{"name":"owner","type":"address","indexed":true,"internalType":"address"},{"name":"approved","type":"address","indexed":true,"internalType":"address"},{"name":"tokenId","type":"uint256","indexed":true,"internalType":"uint256"}],"anonymous":false},{"type":"event","name":"ApprovalForAll","inputs":[{"name":"owner","type":"address","indexed":true,"internalType":"address"},{"name":"operator","type":"address","indexed":true,"internalType":"address"},{"name":"approved","type":"bool","indexed":false,"internalType":"bool"}],"anonymous":false},{"type":"event","name":"OwnershipTransferred","inputs":[{"name":"previousOwner","type":"address","indexed":true,"internalType":"address"},{"name":"newOwner","type":"address","indexed":true,"internalType":"address"}],"anonymous":false},{"type":"event","name":"RewardClaimed","inputs":[{"name":"user","type":"address","indexed":true,"internalType":"address"},{"name":"weekId","type":"uint256","indexed":true,"internalType":"uint256"},{"name":"rank","type":"uint256","indexed":false,"internalType":"uint256"},{"name":"amount","type":"uint256","indexed":false,"internalType":"uint256"},{"name":"points","type":"uint256","indexed":false,"internalType":"uint256"},{"name":"tokenId","type":"uint256","indexed":false,"internalType":"uint256"}],"anonymous":false},{"type":"event","name":"SignerUpdated","inputs":[{"name":"oldSigner","type":"address","indexed":true,"internalType":"address"},{"name":"newSigner","type":"address","indexed":true,"internalType":"address"}],"anonymous":false},{"type":"event","name":"Transfer","inputs":[{"name":"from","type":"address","indexed":true,"internalType":"address"},{"name":"to","type":"address","indexed":true,"internalType":"address"},{"name":"tokenId","type":"uint256","indexed":true,"internalType":"uint256"}],"anonymous":false},{"type":"error","name":"ECDSAInvalidSignature","inputs":[]},{"type":"error","name":"ECDSAInvalidSignatureLength","inputs":[{"name":"length","type":"uint256","internalType":"uint256"}]},{"type":"error","name":"ECDSAInvalidSignatureS","inputs":[{"name":"s","type":"bytes32","internalType":"bytes32"}]},{"type":"error","name":"ERC721IncorrectOwner","inputs":[{"name":"sender","type":"address","internalType":"address"},{"name":"tokenId","type":"uint256","internalType":"uint256"},{"name":"owner","type":"address","internalType":"address"}]},{"type":"error","name":"ERC721InsufficientApproval","inputs":[{"name":"operator","type":"address","internalType":"address"},{"name":"tokenId","type":"uint256","internalType":"uint256"}]},{"type":"error","name":"ERC721InvalidApprover","inputs":[{"name":"approver","type":"address","internalType":"address"}]},{"type":"error","name":"ERC721InvalidOperator","inputs":[{"name":"operator","type":"address","internalType":"address"}]},{"type":"error","name":"ERC721InvalidOwner","inputs":[{"name":"owner","type":"address","internalType":"address"}]},{"type":"error","name":"ERC721InvalidReceiver","inputs":[{"name":"receiver","type":"address","internalType":"address"}]},{"type":"error","name":"ERC721InvalidSender","inputs":[{"name":"sender","type":"address","internalType":"address"}]},{"type":"error","name":"ERC721NonexistentToken","inputs":[{"name":"tokenId","type":"uint256","internalType":"uint256"}]},{"type":"error","name":"OwnableInvalidOwner","inputs":[{"name":"owner","type":"address","internalType":"address"}]},{"type":"error","name":"OwnableUnauthorizedAccount","inputs":[{"name":"account","type":"address","internalType":"address"}]}],"bytecode":{"object":"0x60a0346200046657601f9062003836906001600160401b03601f1938849003858101821684019083821185831017620002cb5780859160409788948552833981010312620004665762000052836200048a565b6200006160208095016200048a565b916200006c6200046a565b90601382527f47454f58204578706c6f7265722042616467650000000000000000000000000086830152620000a06200046a565b97600989526847454f58424144474560b81b878a01528251868111620002cb575f546001948582811c921680156200045b575b8a8310146200039f57818a858594116200042a575b50508990848311600114620003ca575f92620003be575b50505f19600383901b1c191690841b175f555b885191868311620002cb5783548481811c91168015620003b3575b898210146200039f5782811162000364575b508791831160011462000302575081929394959697985f92620002f6575b50505f19600383901b1c191690821b1781555b3315620002df57600680546001600160a01b031980821633908117909355966001600160a01b03969092909187167f8be0079c531659141344cd1fd0a4f28419497f9722a3daafe3b4186f6b6457e05f80a3875190610140820190811182821017620002cb57908694939291895269c685fa11e01ec6f000008152698eefd2c530b9ffe000008282015269673b6d8e6a4d71b0000089820152694f68ca6d8cd91c6000006060820152693f870857a3e0e38000006080820152693796274caf64c710000060a0820152692fa54641bae8aaa0000060c08201526927b46536c66c8e30000060e0820152691fc3842bd1f071c00000806101008301526101208201525f5b600a8110620002ac575050505016608052169060075416176007555161337e9081620004b882396080518181816116ec0152611a790152f35b81516001600160501b0316600d82015587955090820190830162000273565b634e487b7160e01b5f52604160045260245ffd5b8551631e4fbdf760e01b81525f6004820152602490fd5b015190505f806200015d565b821690835f52875f20915f5b8181106200034e5750998385969798999a9b1062000335575b505050811b01815562000170565b01515f1960f88460031b161c191690555f808062000327565b8b8301518455928501929189019189016200030e565b6200038e90855f52895f208480870160051c8201928c881062000395575b0160051c01906200049f565b5f6200013f565b9250819262000382565b634e487b7160e01b5f52602260045260245ffd5b90607f16906200012d565b015190505f80620000ff565b9085879416915f80528b5f20925f5b8d828210620004135750508411620003fa575b505050811b015f5562000112565b01515f1960f88460031b161c191690555f8080620003ec565b8385015186558a97909501949384019301620003d9565b62000453915f805286825f209181870160051c830193871062000395570160051c01906200049f565b5f8a620000e8565b91607f1691620000d3565b5f80fd5b60408051919082016001600160401b03811183821017620002cb57604052565b51906001600160a01b03821682036200046657565b818110620004ab575050565b5f81556001016200049f56fe60808060405260049081361015610014575f80fd5b5f3560e01c90816301ffc9a714611fb75750806306b091f914611f2b57806306fdde0314611e84578063081812fc14611e4a578063095ea7b314611d69578063238ac93314611d4157806323b872dd14611d2a57806342842e0e14611cfd57806342f8158014611ce05780636352211e14611cb057806363aeabca146118735780636c19e783146117ce57806370a0823114611776578063715018a61461171b57806388d60857146116d75780638da5cb5b146116af57806395d89b41146115d157806398da0b6114611589578063a22cb465146114e7578063af364c05146114bc578063b293109614611473578063b7c1f64114611442578063b88d4fde146113d6578063bcd3321e146113b7578063c87b56dd1461043a578063c891091314610394578063e985e9c514610342578063f2fde38b146102ba578063f978fd611461028c5763ffc9896b14610168575f80fd5b34610288576020908160031936011261028857610183612021565b5f60c0604051610192816120f5565b828152606086820152606060408201528260608201528260808201528260a0820152015260018060a01b03165f52600b825260405f2090604051916101d6836120f5565b805483526101e6600182016121e9565b908484019182526101f9600282016121e9565b6040850190815261026b600383015494606087019586528301549160808701928352610258600660058601549560a08a0196875201549560c08901968752604051998a99818b5251908a01525160e060408a015261010089019061206e565b9051878203601f1901606089015261206e565b935160808601525160a08501525160c08401525160e08301520390f35b5f80fd5b503461028857602036600319011261028857355f526009602052602060ff60405f2054166040519015158152f35b5034610288576020366003190112610288576102d4612021565b6102dc612519565b6001600160a01b0390811691821561032b5750600654826001600160601b0360a01b821617600655167f8be0079c531659141344cd1fd0a4f28419497f9722a3daafe3b4186f6b6457e05f80a3005b6024905f60405191631e4fbdf760e01b8352820152fd5b346102885760403660031901126102885761035b612021565b610363612037565b9060018060a01b038091165f52600560205260405f2091165f52602052602060ff60405f2054166040519015158152f35b5034610288576020366003190112610288576001600160a01b036103b6612021565b165f52600b60205260405f20908154906103d2600184016121e9565b926103df600282016121e9565b906003810154928101546104216006600584015493015493610413604051988998895260e060208a015260e089019061206e565b90878203604089015261206e565b936060860152608085015260a084015260c08301520390f35b50346102885760203660031901126102885780355f908152600c60205260409020546001600160a01b039081161561137c5781355f52600c60205260405f2054165f52600b60205260405f2090604051610493816120f5565b8254815260066104a5600185016121e9565b93602083019485526104b9600282016121e9565b604084015260038101546060840152838101546080840152600581015460a0840152015460c0820152604051917f3c67206f7061636974793d22302e33222066696c6c3d2223303066663431222060208401527f666f6e742d66616d696c793d226d6f6e6f73706163652220666f6e742d73697a604084015266329e911898111f60c91b60608401527f3c7465787420783d2233302220793d22313030223e313c2f746578743e3c746560678401527f787420783d2233302220793d22323030223e303c2f746578743e3c746578742060878401527f783d2233302220793d22333030223e313c2f746578743e00000000000000000060a78401527f3c7465787420783d2237302220793d22313530223e303c2f746578743e3c746560be8401527f787420783d2237302220793d22323530223e313c2f746578743e3c746578742060de8401527f783d2237302220793d22333530223e303c2f746578743e00000000000000000060fe8401527f3c7465787420783d223333302220793d22313230223e313c2f746578743e3c746101158401526101357f65787420783d223333302220793d22323230223e303c2f746578743e3c74657881850152610155937f7420783d223333302220793d22333230223e313c2f746578743e000000000000858201527f3c7465787420783d223337302220793d22313730223e303c2f746578743e3c7461016f8201527f65787420783d223337302220793d22323730223e313c2f746578743e3c74657861018f8201527f7420783d223337302220793d22333730223e303c2f746578743e0000000000006101af820152631e17b39f60e11b6101c98201526101ad81526101e081018181106001600160401b03821117611369576040528551606085015161075090612f63565b90608086015161075f90612f63565b60a087015161076d90612f63565b604080517f3c73766720786d6c6e733d22687474703a2f2f7777772e77332e6f72672f32306020808301919091527f30302f737667222077696474683d2234303022206865696768743d2235303022928201929092527f2076696577426f783d223020302034303020353030223e0000000000000000006060820152651e3232b3399f60d11b60778201527f3c6c696e6561724772616469656e742069643d226d6174726978477261642220607d8201527f78313d223025222079313d223025222078323d223025222079323d2231303025609d82015261111f60f11b60bd8201527f3c73746f70206f66667365743d22302522207374796c653d2273746f702d636f60bf8201526d3637b91d11981818b0981811179f60911b60df8201527f3c73746f70206f66667365743d223130302522207374796c653d2273746f702d60ed8201526f31b7b637b91d1198181818181811179f60811b61010d820152701e17b634b732b0b923b930b234b2b73a1f60791b61011d820152661e17b232b3399f60c91b61012e8201527f3c726563742077696474683d2234303022206865696768743d22353030222066978101979097527f696c6c3d2275726c28236d61747269784772616429222f3e00000000000000009987019990995284519598899661016d969091610964918391898b01910161204d565b7f3c7265637420783d2232302220793d223230222077696474683d223336302220908701958601527f6865696768743d22343630222072783d223130222066696c6c3d226e6f6e652261018d8601527f207374726f6b653d222330306666343122207374726f6b652d77696474683d226101ad8601527119111037b830b1b4ba3c9e9118171c11179f60711b6101cd8601527f3c7465787420783d223230302220793d2236302220666f6e742d66616d696c796101df8601527f3d226d6f6e6f73706163652220666f6e742d73697a653d223234222066696c6c6101ff8601527f3d22233030666634312220746578742d616e63686f723d226d6964646c65222061021f8601527f666f6e742d7765696768743d22626f6c64223e47454f58204558504c4f52455261023f860152661e17ba32bc3a1f60c91b61025f86018190527f3c6c696e652078313d223430222079313d223830222078323d223336302220796102668701527f323d22383022207374726f6b653d222330306666343122207374726f6b652d776102868701527f696474683d223122206f7061636974793d22302e35222f3e00000000000000006102a68701527f3c7465787420783d223230302220793d223134302220666f6e742d66616d696c6102be8701527f793d226d6f6e6f73706163652220666f6e742d73697a653d223138222066696c6102de8701527f6c3d22233030666634312220746578742d616e63686f723d226d6964646c65226102fe870181905260f960f61b61031e8801528451610320979195929492859290610bbc9083908b84019060200161204d565b01968701527f3c7465787420783d223230302220793d223230302220666f6e742d66616d696c6103278701527f793d226d6f6e6f73706163652220666f6e742d73697a653d223134222066696c61034787015261036786018490527f206f7061636974793d22302e38223e544f54414c20504f494e54533c2f746578610387870152613a1f60f11b6103a787018190527f3c7465787420783d223230302220793d223234302220666f6e742d66616d696c6103a98801527f793d226d6f6e6f73706163652220666f6e742d73697a653d223336222066696c6103c98801526103e9870185905273103337b73a16bbb2b4b3b43a1e913137b632111f60611b610409880152855161041d979196859290610cdd9083908b84019060200161204d565b019687015261042486017f3c7465787420783d223132302220793d223331302220666f6e742d66616d696c90527f793d226d6f6e6f73706163652220666f6e742d73697a653d223132222066696c806104448801528461046488015261048487017f206f7061636974793d22302e38223e424553542052414e4b3c2f746578743e0090526104a387017f3c7465787420783d223132302220793d223334302220666f6e742d66616d696c9052837f793d226d6f6e6f73706163652220666f6e742d73697a653d223234222066696c92836104c38a0152866104e38a01526105038901613e2360f01b905261050598815191828b83019160200191610de09261204d565b01978801527f3c7465787420783d223238302220793d223331302220666f6e742d66616d696c61050c88015261052c87015261054c86018490527f206f7061636974793d22302e38223e434c41494d533c2f746578743e0000000061056c8701527f3c7465787420783d223238302220793d223334302220666f6e742d66616d696c6105888701526105a88601526105c88501839052601f60f91b6105e886015280516105e9959091610e9b9083908884019060200161204d565b01938401527f3c6c696e652078313d223430222079313d22343030222078323d2233363022206105f08401527f79323d2234303022207374726f6b653d222330306666343122207374726f6b656106108401527f2d77696474683d223122206f7061636974793d22302e35222f3e0000000000006106308401527f3c7465787420783d223230302220793d223434302220666f6e742d66616d696c61064a8401527f793d226d6f6e6f73706163652220666f6e742d73697a653d223130222066696c61066a840181905261068a84018290527f206f7061636974793d22302e36223e4275696c742062792040756b796838393c6106aa8501526517ba32bc3a1f60d11b6106ca8501527f3c7465787420783d223230302220793d223436302220666f6e742d66616d696c6106d08501526106f08401526107108301527f206f7061636974793d22302e36223e42617365204d61696e6e65743c2f746578610730830152610750820152651e17b9bb339f60d11b610752820152036107388101845261102a90610758018461213f565b3561103490612f63565b9161103e90613187565b9251606082015161104e90612f63565b608083015161105c90612f63565b9260a0015161106a90612f63565b91604051958695602087017f7b226e616d65223a2247454f58204578706c6f72657220426164676520230000905280519081603e890191602001916110ae9261204d565b7f222c226465736372697074696f6e223a2244796e616d6963204e465420626164603e918801918201527f676520666f722047454f58204578706c6f7265722067616d652e204275696c74605e8201526c08189e48101d5ade5a0e0e488b609a1b607e8201527f22696d616765223a22646174613a696d6167652f7376672b786d6c3b62617365608b820152620d8d0b60ea1b60ab82015281519161115c90839060ae84019060200161204d565b6f222c2261747472696275746573223a5b60801b60ae92909101918201527f7b2274726169745f74797065223a22557365726e616d65222c2276616c75652260be820152611d1160f11b60de8201528151916111c190839060e084019060200161204d565b0162089f4b60ea1b60e082015260e381017f7b2274726169745f74797065223a22546f74616c20506f696e7473222c227661905264363ab2911d60d91b91826101038301526101089181519182848301916020019161121f9261204d565b0193611f4b60f21b809286015261010a85017f7b2274726169745f74797065223a22486967686573742052616e6b222c22766190528261012a86015261012f948151918287830191602001916112749261204d565b019384015261013183017f7b2274726169745f74797065223a22546f74616c20436c61696d73222c2276619052610151830152610156918151918284830191602001916112c09261204d565b01908101607d60f81b90526101578101615d7d60f01b90520361013981018252610159016112ee908261213f565b6112f790613187565b6040518091602082017f646174613a6170706c69636174696f6e2f6a736f6e3b6261736536342c000000905280519081603d840191602001916113399261204d565b810103601d81018252603d0161134f908261213f565b604051809160208252602082016113659161206e565b0390f35b604184634e487b7160e01b5f525260245ffd5b60405162461bcd60e51b81526020818401526014602482015273151bdad95b88191bd95cc81b9bdd08195e1a5cdd60621b6044820152606490fd5b34610288575f36600319011261028857602060405162093a8042048152f35b5034610288576080366003190112610288576113f0612021565b6113f8612037565b604435906064356001600160401b0381116102885736602382011215610288576114409481602461142e9336930135910161217b565b9261143a8383836122a3565b33612e19565b005b503461028857602036600319011261028857355f52600c602052602060018060a01b0360405f205416604051908152f35b34610288576040366003190112610288576001600160a01b03611494612021565b165f52600860205260405f206024355f52602052602060ff60405f2054166040519015158152f35b50346102885760203660031901126102885735600a81101561028857602090600d0154604051908152f35b503461028857604036600319011261028857611501612021565b60243590811515809203610288576001600160a01b03169182156115715750335f52600560205260405f20825f5260205260405f2060ff1981541660ff83161790556040519081527f17307eab39ab6107e8899845ad3d59bd9653f200f220920489ca2b5937696c3160203392a3005b604051630b61174360e31b8152908101839052602490fd5b34610288576040366003190112610288576001600160a01b036115aa612021565b165f52600860205260405f206024355f52602052602060ff60405f20541615604051908152f35b34610288575f366003190112610288576040515f600182600154926115f5846121b1565b92838352602094856001821691825f1461168f575050600114611634575b506116209250038361213f565b61136560405192828493845283019061206e565b84915060015f527fb10e2d527612073b26eecdfd717e6a320cf44b4afac2b0732d9fcbe2b7fa0cf6905f915b858310611677575050611620935082010185611613565b80548389018501528794508693909201918101611660565b60ff19168582015261162095151560051b85010192508791506116139050565b34610288575f366003190112610288576006546040516001600160a01b039091168152602090f35b34610288575f366003190112610288576040517f00000000000000000000000000000000000000000000000000000000000000006001600160a01b03168152602090f35b34610288575f36600319011261028857611733612519565b600680546001600160a01b031981169091555f906001600160a01b03167f8be0079c531659141344cd1fd0a4f28419497f9722a3daafe3b4186f6b6457e08280a3005b5034610288576020366003190112610288576001600160a01b03611798612021565b169081156117b757505f526003602052602060405f2054604051908152f35b6024905f604051916322718ad960e21b8352820152fd5b5034610288576020366003190112610288576117e8612021565b6117f0612519565b6001600160a01b0390811691821561183e5750816007549182167f2d025324f0a785e8c12d0a0d91a9caa49df4ef20ff87e0df7213a1d4f3157beb5f80a36001600160a01b03191617600755005b60649060206040519162461bcd60e51b8352820152600e60248201526d24b73b30b634b21039b4b3b732b960911b6044820152fd5b50346102885760e0366003190112610288576024908035908235906001600160401b039060448035919060648035858111610288576118b590369085016120c8565b91608435878111610288576118cd90369087016120c8565b95909460a4359860c435908111610288576118eb90369084016120c8565b8a9d919d4211611c7c5760018c101580611c71575b15611c4257335f5260209a60088c528d60405f20905f528c5260ff60405f205416611c01578c61197e8f928e60b4918f8f908f908f8f819085936040519b8c998a019d8e3360601b905260348b015260548a015260748901526094880137850191609483015f8152370190609482015203609481018452018261213f565b5190207f19457468657265756d205369676e6564204d6573736167653a0a3332000000005f52601c52603c5f2090815f5260098c5260ff60405f205416611bc7576119d56119e49b9c9d9e9f6119db92369161217b565b826130ca565b909b919b613104565b6007546001600160a01b039a908b16908b1603611b9357335f5260088c528d60405f20905f528c5260405f209060ff19916001838254161790555f5260098c52600160405f20918254161790555f198c018c8111611b8057600a1115611b6e57600c8c01546040805163a9059cbb60e01b81523386820190815260208101849052929b90928e9284929183915f9183910103927f0000000000000000000000000000000000000000000000000000000000000000165af1908115611b63575f91611b36575b5015611aff5750505050611ac39389938993889333612726565b92604051948552840152604083015260608201527f7922a0ea85b8a7c3cbf739ebd762ea86a9454bf62a9dec7dc02a14a2017b057d60803392a3005b60405162461bcd60e51b81529283018b905260159083015274151bdad95b881d1c985b9cd9995c8819985a5b1959605a1b90820152fd5b611b5691508c8d3d10611b5c575b611b4e818361213f565b81019061228b565b5f611aa9565b503d611b44565b6040513d5f823e3d90fd5b634e487b7160e01b5f90815260328452fd5b50634e487b7160e01b5f90815260118452fd5b5060405162461bcd60e51b81529283018b905260119083015270496e76616c6964207369676e617475726560781b90820152fd5b505060405162461bcd60e51b81529283018a90526016908301527514da59db985d1d5c9948185b1c9958591e481d5cd95960521b90820152fd5b505060405162461bcd60e51b81529283018a90526019908301527f416c726561647920636c61696d65642074686973207765656b0000000000000090820152fd5b5090600c6b496e76616c69642072616e6b60a01b9260206040519562461bcd60e51b8752860152840152820152fd5b50600a8c1115611900565b509060117014da59db985d1d5c9948195e1c1a5c9959607a1b9260206040519562461bcd60e51b8752860152840152820152fd5b503461028857602036600319011261028857611cce60209135612545565b6040516001600160a01b039091168152f35b34610288575f3660031901126102885760206040516203f4808152f35b3461028857611440611d0e36612093565b9060405192611d1c84612124565b5f845261143a8383836122a3565b3461028857611440611d3b36612093565b916122a3565b34610288575f366003190112610288576007546040516001600160a01b039091168152602090f35b503461028857604036600319011261028857611d83612021565b90602435611d9081612545565b33151580611e37575b80611e0e575b611df7576001600160a01b039384169382918591167f8c5be1e5ebec7d5bd14f71427d1e84f3dd0314c0f7b2291e5b200ac8c7c3b9255f80a45f5260205260405f20906001600160601b0360a01b8254161790555f80f35b60405163a9fbf51f60e01b81523381850152602490fd5b5060018060a01b0381165f52600560205260405f20335f5260205260ff60405f20541615611d9f565b506001600160a01b038116331415611d99565b5034610288576020366003190112610288578035611e6781612545565b505f52602052602060018060a01b0360405f205416604051908152f35b34610288575f366003190112610288576040515f80549082611ea5836121b1565b91828252602093600190856001821691825f1461168f575050600114611ed257506116209250038361213f565b5f808052859250907f290decd9548b62a8d60345a988386fc84ba6bc95484008f6362f93160ef3e5635b858310611f13575050611620935082010185611613565b80548389018501528794508693909201918101611efc565b5034610288576040366003190112610288576020611f8e91611f4b612021565b611f53612519565b6006546040805163a9059cbb60e01b81526001600160a01b03928316948101948552602435602086015295869485935f939092859290910190565b0393165af18015611b6357611f9f57005b6114409060203d602011611b5c57611b4e818361213f565b823461028857602036600319011261028857359063ffffffff60e01b8216809203610288576020916380ac58cd60e01b8114908115612010575b8115611fff575b5015158152f35b6301ffc9a760e01b14905083611ff8565b635b5e139f60e01b81149150611ff1565b600435906001600160a01b038216820361028857565b602435906001600160a01b038216820361028857565b5f5b83811061205e5750505f910152565b818101518382015260200161204f565b906020916120878151809281855285808601910161204d565b601f01601f1916010190565b6060906003190112610288576001600160a01b0390600435828116810361028857916024359081168103610288579060443590565b9181601f84011215610288578235916001600160401b038311610288576020838186019501011161028857565b60e081019081106001600160401b0382111761211057604052565b634e487b7160e01b5f52604160045260245ffd5b602081019081106001600160401b0382111761211057604052565b90601f801991011681019081106001600160401b0382111761211057604052565b6001600160401b03811161211057601f01601f191660200190565b92919261218782612160565b91612195604051938461213f565b829481845281830111610288578281602093845f960137010152565b90600182811c921680156121df575b60208310146121cb57565b634e487b7160e01b5f52602260045260245ffd5b91607f16916121c0565b9060405191825f82546121fb816121b1565b908184526020946001916001811690815f14612269575060011461222b575b5050506122299250038361213f565b565b5f90815285812095935091905b81831061225157505061222993508201015f808061221a565b85548884018501529485019487945091830191612238565b9250505061222994925060ff191682840152151560051b8201015f808061221a565b90816020910312610288575180151581036102885790565b6001600160a01b03918216929091831561250157815f526020926002845260409482865f2054169433151580612473575b508515159182612442575b805f5260038252875f2060018154019055855f5260028252875f20926001600160601b0360a01b9382858254161790558682897fddf252ad1be2c89b69c2b068fc378daa952ba7f163c4a11628f55a4df523b3ef5f80a48061243a575b612374575b50505016928383036123535750505050565b6064945051926364283d7b60e01b8452600484015260248301526044820152fd5b600b92600c835281895f2091825416179055865f52828252875f20815f52885f20908082036123e8575b50505f525282855f2055835f525f60068682208281556123c0600182016126bc565b6123cc600282016126bc565b82600382015582600482015582600582015501555f8080612341565b600681819254845561240060018201600186016125d8565b61241060028201600286016125d8565b60038101546003850155600481015460048501556005810154600585015501549101555f8061239e565b50600161233c565b5f86815260046020526040812080546001600160a01b03191690558781526003835288902080545f190190556122df565b806124c0575b15612484575f6122d4565b8685876124a1576024915190637e27328960e01b82526004820152fd5b905163177e802f60e01b81523360048201526024810191909152604490fd5b5033861480156124e5575b806124795750845f52600481523384885f20541614612479565b50855f5260058152865f20335f52815260ff875f2054166124cb565b604051633250574960e11b81525f6004820152602490fd5b6006546001600160a01b0316330361252d57565b60405163118cdaa760e01b8152336004820152602490fd5b5f818152600260205260409020546001600160a01b0316908115612567575090565b60249060405190637e27328960e01b82526004820152fd5b81811061258a575050565b5f815560010161257f565b9190601f81116125a457505050565b612229925f5260205f20906020601f840160051c830193106125ce575b601f0160051c019061257f565b90915081906125c1565b908082146126b8576125ea81546121b1565b906001600160401b0382116121105761260d8261260785546121b1565b85612595565b5f90601f831160011461264a5761263b92915f918361263f575b50508160011b915f199060031b1c19161790565b9055565b015490505f80612627565b90601f198316915f5260209160205f2090855f5260205f20935f905b82821061269f575050908460019594939210612687575b505050811b019055565b01545f1960f88460031b161c191690555f808061267d565b8495819295850154815560018091019601940190612666565b5050565b6126c681546121b1565b90816126d0575050565b81601f5f93116001146126e1575055565b908083918252612700601f60208420940160051c84016001850161257f565b5555565b5f1981146127125760010190565b634e487b7160e01b5f52601160045260245ffd5b959192969394909660018060a01b03958688165f52600b60205260405f20948554155f14612c3157612759600a54612704565b998a600a5560405161276a81612124565b5f8152898b1615612501578b5f5260026020528960405f20541680612bfe575b8a8c165f52600360205260405f20600181540190558c5f52600260205260405f208b8d166001600160601b0360a01b8254161790558c8b8d16827fddf252ad1be2c89b69c2b068fc378daa952ba7f163c4a11628f55a4df523b3ef5f80a480151581612bf6575b612b19575b612b01578a3b6129cf575b508a87556001600160401b0382116121105761282d8261282460018a01546121b1565b60018a01612595565b5f90601f83116001146129625761285a92915f91836128ed5750508160011b915f199060031b1c19161790565b60018601555b60028501916001600160401b038211612110576128818261260785546121b1565b5f90601f83116001146128f85791806128b592600698979695945f926128ed5750508160011b915f199060031b1c19161790565b90555b60038301556004820155600160058201550155825f52600c60205260405f2091166001600160601b0360a01b82541617905590565b013590505f80612627565b601f19831691845f5260205f20925f5b81811061294a575091600193918560069a999897969410612931575b505050811b0190556128b8565b01355f19600384901b60f8161c191690555f8080612924565b91936020600181928787013581550195019201612908565b600188939293015f5260205f20905f935b601f19841685106129b7576001945083601f1981161061299e575b505050811b016001860155612860565b01355f19600384901b60f8161c191690555f808061298e565b81810135835560209485019460019093019201612973565b6020612a12918c8c9f9d9e5f819e604051809781968295630a85bd0160e11b8452336004850152856024850152604484015260806064840152608483019061206e565b0393165af15f9181612abc575b50612a80578c8c3d15612a78573d91612a3783612160565b92612a45604051948561213f565b83523d5f602085013e5b82519283612a7157604051633250574960e11b81528284166004820152602490fd5b6020849101fd5b606091612a4f565b999b989a996001600160e01b03191663757a42ff60e11b01612aa2575f612801565b604051633250574960e11b8152898b166004820152602490fd5b9091506020813d602011612af9575b81612ad86020938361213f565b8101031261028857516001600160e01b03198116810361028857905f612a1f565b3d9150612acb565b6040516339e3563760e11b81525f6004820152602490fd5b600c60205260405f208b8d166001600160601b0360a01b825416179055805f52600b60205260405f208b8d165f5260405f2090808203612ba4575b50508a8c165f52600b6020528c60405f2055805f525f600660408220828155612b7f600182016126bc565b612b8b600282016126bc565b82600382015582600482015582600582015501556127f6565b6006818192548455612bbc60018201600186016125d8565b612bcc60028201600286016125d8565b60038101546003850155600481015460048501556005810154600585015501549101555f80612b54565b5060016127f1565b5f8d815260046020526040902080546001600160a01b0319169055805f52600360205260405f205f19815401905561278a565b948098506003919750999895929199018054918201809211612712575560058601612c5c8154612704565b905560068601556004850180548210612e11575b505080612d4a575b505080612c86575b50549150565b60028201906001600160401b03811161211057612cad81612ca784546121b1565b84612595565b5f601f8211600114612ce7578190612cdc939495965f926128ed5750508160011b915f199060031b1c19161790565b90555b81905f612c80565b601f19821695835f5260205f20915f5b888110612d3257508360019596979810612d19575b505050811b019055612cdf565b01355f19600384901b60f8161c191690555f8080612d0c565b90926020600181928686013581550194019101612cf7565b6001808501926001600160401b03831161211057612d7283612d6c86546121b1565b86612595565b5f91601f8411600114612daa5750612da092915f91836128ed5750508160011b915f199060031b1c19161790565b90555b5f80612c78565b91601f198416855f5260205f20935f905b828210612df8575050908460019594939210612ddf575b505050811b019055612da3565b01355f19600384901b60f8161c191690555f8080612dd2565b9092946020828192888801358155019601930190612dbb565b555f80612c70565b9293909193843b612e2c575b5050505050565b604051630a85bd0160e11b8082526001600160a01b039586166004830152938516602482015260448101919091526080606482015260209594909316939290859082908190612e7f90608483019061206e565b03815f885af15f9181612f23575b50612eec575050503d5f14612ee4573d91612ea783612160565b92612eb5604051948561213f565b83523d5f8285013e5b82519283612edf57604051633250574960e11b815260048101849052602490fd5b019050fd5b606091612ebe565b9193506001600160e01b031990911603612f0b57505f80808080612e25565b60249060405190633250574960e11b82526004820152fd5b9091508581813d8311612f5c575b612f3b818361213f565b8101031261028857516001600160e01b03198116810361028857905f612e8d565b503d612f31565b805f917a184f03e93ff9f4daa797ed6e38ed64bf6a1f010000000000000000808210156130bc575b506d04ee2d6d415b85acef8100000000808310156130ad575b50662386f26fc100008083101561309e575b506305f5e1008083101561308f575b5061271080831015613080575b506064821015613070575b600a80921015613066575b6001908160216001860195612ffc87612160565b9661300a604051988961213f565b808852613019601f1991612160565b01366020890137860101905b613031575b5050505090565b5f19019083906f181899199a1a9b1b9c1cb0b131b232b360811b8282061a83530491821561306157919082613025565b61302a565b9160010191612fe8565b9190606460029104910191612fdd565b6004919392049101915f612fd2565b6008919392049101915f612fc5565b6010919392049101915f612fb6565b6020919392049101915f612fa4565b60409350810491505f612f8b565b81519190604183036130fa576130f39250602082015190606060408401519301515f1a906132c6565b9192909190565b50505f9160029190565b60048110156131735780613116575050565b600181036131305760405163f645eedf60e01b8152600490fd5b600281036131515760405163fce698f760e01b815260048101839052602490fd5b60031461315b5750565b602490604051906335e2f38360e21b82526004820152fd5b634e487b7160e01b5f52602160045260245ffd5b8051156132b357805191600280840180941161271257600393849004600281901b91906001600160fe1b038116036127125793604051937f4142434445464748494a4b4c4d4e4f505152535455565758595a616263646566601f52603f917f6768696a6b6c6d6e6f707172737475767778797a303132333435363738392b2f603f5260208601928291835184019160208301998a51945f8c525b8481106132775750505050509060039160209596975251068060011461326257600214613255575b50808452830101604052565b603d905f1901535f613249565b50603d90815f1982015360011901535f613249565b836004919c95989c019b838d51818160121c165183538181600c1c16516001840153818160061c1651858401531651858201530196939a613221565b506040516132c081612124565b5f815290565b91907f7fffffffffffffffffffffffffffffff5d576e7357a4501ddfe92f46681b20a0841161333d579160209360809260ff5f9560405194855216868401526040830152606082015282805260015afa15611b63575f516001600160a01b0381161561333357905f905f90565b505f906001905f90565b5050505f916003919056fea2646970667358221220eced13dda156d64c3b5e8234095809d15d669a02f3bb55851bf4913cc53d5b8964736f6c63430008180033","linkReferences":{}},"methodIdentifiers":{"CLAIM_DEADLINE()":"42f81580","approve(address,uint256)":"095ea7b3","balanceOf(address)":"70a08231","canClaim(address,uint256)":"98da0b61","claimReward(uint256,uint256,uint256,string,string,uint256,bytes)":"63aeabca","geoxToken()":"88d60857","getApproved(uint256)":"081812fc","getCurrentWeekId()":"bcd3321e","getUserData(address)":"ffc9896b","hasClaimed(address,uint256)":"b2931096","isApprovedForAll(address,address)":"e985e9c5","name()":"06fdde03","owner()":"8da5cb5b","ownerOf(uint256)":"6352211e","renounceOwnership()":"715018a6","safeTransferFrom(address,address,uint256)":"42842e0e","safeTransferFrom(address,address,uint256,bytes)":"b88d4fde","setApprovalForAll(address,bool)":"a22cb465","setSigner(address)":"6c19e783","signer()":"238ac933","supportsInterface(bytes4)":"01ffc9a7","symbol()":"95d89b41","tokenOwnerData(uint256)":"b7c1f641","tokenURI(uint256)":"c87b56dd","transferFrom(address,address,uint256)":"23b872dd","transferOwnership(address)":"f2fde38b","usedSignatures(bytes32)":"f978fd61","userData(address)":"c8910913","weeklyRewards(uint256)":"af364c05","withdrawTokens(address,uint256)":"06b091f9"},"id":35}